{
  "contractName": "Exchange",
  "abi": [
    {
      "constant": true,
      "inputs": [],
      "name": "owner",
      "outputs": [
        {
          "name": "",
          "type": "address"
        }
      ],
      "payable": false,
      "stateMutability": "view",
      "type": "function"
    },
    {
      "constant": true,
      "inputs": [],
      "name": "tradeEnable",
      "outputs": [
        {
          "name": "",
          "type": "bool"
        }
      ],
      "payable": false,
      "stateMutability": "view",
      "type": "function"
    },
    {
      "inputs": [
        {
          "name": "isTradeEnable",
          "type": "bool"
        }
      ],
      "payable": false,
      "stateMutability": "nonpayable",
      "type": "constructor"
    },
    {
      "constant": true,
      "inputs": [],
      "name": "getListOfSupportedTokens",
      "outputs": [
        {
          "name": "",
          "type": "address[]"
        }
      ],
      "payable": false,
      "stateMutability": "view",
      "type": "function"
    },
    {
      "constant": true,
      "inputs": [
        {
          "name": "sourceTokenAddress",
          "type": "address"
        },
        {
          "name": "destinationTokenAddress",
          "type": "address"
        },
        {
          "name": "amountString",
          "type": "string"
        }
      ],
      "name": "computeReceivedSwapAmountPublic",
      "outputs": [
        {
          "name": "",
          "type": "uint256"
        }
      ],
      "payable": false,
      "stateMutability": "view",
      "type": "function"
    },
    {
      "constant": true,
      "inputs": [
        {
          "name": "symbolOrName",
          "type": "string"
        }
      ],
      "name": "getTokenAddressBySymbolOrName",
      "outputs": [
        {
          "name": "",
          "type": "address"
        }
      ],
      "payable": false,
      "stateMutability": "view",
      "type": "function"
    },
    {
      "constant": true,
      "inputs": [
        {
          "name": "tokenAddress",
          "type": "address"
        }
      ],
      "name": "getReserveByTokenAddress",
      "outputs": [
        {
          "name": "",
          "type": "address"
        }
      ],
      "payable": false,
      "stateMutability": "view",
      "type": "function"
    },
    {
      "constant": false,
      "inputs": [
        {
          "name": "isTradeEnable",
          "type": "bool"
        }
      ],
      "name": "setExchangeTradeEnable",
      "outputs": [],
      "payable": false,
      "stateMutability": "nonpayable",
      "type": "function"
    },
    {
      "constant": false,
      "inputs": [
        {
          "name": "tokenAddress",
          "type": "address"
        },
        {
          "name": "isTradeEnable",
          "type": "bool"
        }
      ],
      "name": "setReserveTradeEnable",
      "outputs": [],
      "payable": false,
      "stateMutability": "nonpayable",
      "type": "function"
    },
    {
      "constant": false,
      "inputs": [
        {
          "name": "newReserve",
          "type": "address"
        },
        {
          "name": "symbol",
          "type": "string"
        },
        {
          "name": "name",
          "type": "string"
        }
      ],
      "name": "addReserve",
      "outputs": [],
      "payable": false,
      "stateMutability": "nonpayable",
      "type": "function"
    },
    {
      "constant": false,
      "inputs": [
        {
          "name": "tokenAddress",
          "type": "address"
        }
      ],
      "name": "removeReserve",
      "outputs": [],
      "payable": false,
      "stateMutability": "nonpayable",
      "type": "function"
    },
    {
      "constant": false,
      "inputs": [
        {
          "name": "sourceTokenAddress",
          "type": "address"
        },
        {
          "name": "destinationTokenAddress",
          "type": "address"
        },
        {
          "name": "amountString",
          "type": "string"
        }
      ],
      "name": "registerSwapOrder",
      "outputs": [],
      "payable": true,
      "stateMutability": "payable",
      "type": "function"
    },
    {
      "constant": false,
      "inputs": [
        {
          "name": "tokenAddress",
          "type": "address"
        },
        {
          "name": "receiver",
          "type": "address"
        },
        {
          "name": "amountString",
          "type": "string"
        }
      ],
      "name": "tranferToken",
      "outputs": [],
      "payable": true,
      "stateMutability": "payable",
      "type": "function"
    },
    {
      "constant": false,
      "inputs": [
        {
          "name": "tokenAddress",
          "type": "address"
        },
        {
          "name": "rateString",
          "type": "string"
        }
      ],
      "name": "setRate",
      "outputs": [],
      "payable": false,
      "stateMutability": "nonpayable",
      "type": "function"
    }
  ],
  "bytecode": "0x608060405234801561001057600080fd5b506040516020806139218339810180604052810190808051906020019092919050505033600460006101000a81548173ffffffffffffffffffffffffffffffffffffffff021916908373ffffffffffffffffffffffffffffffffffffffff16021790555080600460146101000a81548160ff021916908315150217905550506138838061009e6000396000f3006080604052600436106100c5576000357c0100000000000000000000000000000000000000000000000000000000900463ffffffff1680630f143aea146100ca57806316e020a91461014d5780632a7aaf80146101f65780632b5a84f51461027f57806352a01a021461031b5780636b66d05f1461034a57806380436fe0146103e65780638da5cb5b1461042957806391d4189614610480578063be35186c146104cf578063c47ff2f21461059e578063ea4e6ded1461065b578063f87dc2c6146106c7575b600080fd5b3480156100d657600080fd5b5061010b600480360381019080803573ffffffffffffffffffffffffffffffffffffffff1690602001909291905050506106f6565b604051808273ffffffffffffffffffffffffffffffffffffffff1673ffffffffffffffffffffffffffffffffffffffff16815260200191505060405180910390f35b34801561015957600080fd5b506101b4600480360381019080803590602001908201803590602001908080601f016020809104026020016040519081016040528093929190818152602001838380828437820191505050505050919291929050505061075e565b604051808273ffffffffffffffffffffffffffffffffffffffff1673ffffffffffffffffffffffffffffffffffffffff16815260200191505060405180910390f35b34801561020257600080fd5b5061027d600480360381019080803573ffffffffffffffffffffffffffffffffffffffff169060200190929190803590602001908201803590602001908080601f0160208091040260200160405190810160405280939291908181526020018383808284378201915050505050509192919290505050610b3a565b005b610319600480360381019080803573ffffffffffffffffffffffffffffffffffffffff169060200190929190803573ffffffffffffffffffffffffffffffffffffffff169060200190929190803590602001908201803590602001908080601f0160208091040260200160405190810160405280939291908181526020018383808284378201915050505050509192919290505050610fbc565b005b34801561032757600080fd5b50610348600480360381019080803515159060200190929190505050611510565b005b6103e4600480360381019080803573ffffffffffffffffffffffffffffffffffffffff169060200190929190803573ffffffffffffffffffffffffffffffffffffffff169060200190929190803590602001908201803590602001908080601f0160208091040260200160405190810160405280939291908181526020018383808284378201915050505050509192919290505050611589565b005b3480156103f257600080fd5b50610427600480360381019080803573ffffffffffffffffffffffffffffffffffffffff169060200190929190505050611e5a565b005b34801561043557600080fd5b5061043e611fc0565b604051808273ffffffffffffffffffffffffffffffffffffffff1673ffffffffffffffffffffffffffffffffffffffff16815260200191505060405180910390f35b34801561048c57600080fd5b506104cd600480360381019080803573ffffffffffffffffffffffffffffffffffffffff169060200190929190803515159060200190929190505050611fe6565b005b3480156104db57600080fd5b5061059c600480360381019080803573ffffffffffffffffffffffffffffffffffffffff169060200190929190803590602001908201803590602001908080601f0160208091040260200160405190810160405280939291908181526020018383808284378201915050505050509192919290803590602001908201803590602001908080601f0160208091040260200160405190810160405280939291908181526020018383808284378201915050505050509192919290505050612135565b005b3480156105aa57600080fd5b50610645600480360381019080803573ffffffffffffffffffffffffffffffffffffffff169060200190929190803573ffffffffffffffffffffffffffffffffffffffff169060200190929190803590602001908201803590602001908080601f0160208091040260200160405190810160405280939291908181526020018383808284378201915050505050509192919290505050612d2e565b6040518082815260200191505060405180910390f35b34801561066757600080fd5b506106706130dd565b6040518080602001828103825283818151815260200191508051906020019060200280838360005b838110156106b3578082015181840152602081019050610698565b505050509050019250505060405180910390f35b3480156106d357600080fd5b506106dc61316b565b604051808215151515815260200191505060405180910390f35b60008060008373ffffffffffffffffffffffffffffffffffffffff1673ffffffffffffffffffffffffffffffffffffffff16815260200190815260200160002060009054906101000a900473ffffffffffffffffffffffffffffffffffffffff169050919050565b600080600090505b6002805490508160ff161015610b335773__StringUtils___________________________6346bdca9a8460028460ff168154811015156107a357fe5b906000526020600020016040518363ffffffff167c0100000000000000000000000000000000000000000000000000000000028152600401808060200180602001838103835285818151815260200191508051906020019080838360005b8381101561081c578082015181840152602081019050610801565b50505050905090810190601f1680156108495780820380516001836020036101000a031916815260200191505b508381038252848181546001816001161561010002031660029004815260200191508054600181600116156101000203166002900480156108cb5780601f106108a0576101008083540402835291602001916108cb565b820191906000526020600020905b8154815290600101906020018083116108ae57829003601f168201915b505094505050505060206040518083038186803b1580156108eb57600080fd5b505af41580156108ff573d6000803e3d6000fd5b505050506040513d602081101561091557600080fd5b810190808051906020019092919050505080610add575073__StringUtils___________________________6346bdca9a8460038460ff1681548110151561095957fe5b906000526020600020016040518363ffffffff167c0100000000000000000000000000000000000000000000000000000000028152600401808060200180602001838103835285818151815260200191508051906020019080838360005b838110156109d25780820151818401526020810190506109b7565b50505050905090810190601f1680156109ff5780820380516001836020036101000a031916815260200191505b50838103825284818154600181600116156101000203166002900481526020019150805460018160011615610100020316600290048015610a815780601f10610a5657610100808354040283529160200191610a81565b820191906000526020600020905b815481529060010190602001808311610a6457829003601f168201915b505094505050505060206040518083038186803b158015610aa157600080fd5b505af4158015610ab5573d6000803e3d6000fd5b505050506040513d6020811015610acb57600080fd5b81019080805190602001909291905050505b15610b265760018160ff16815481101515610af457fe5b9060005260206000200160009054906101000a900473ffffffffffffffffffffffffffffffffffffffff169150610b34565b8080600101915050610766565b5b50919050565b6000806000806000600460009054906101000a900473ffffffffffffffffffffffffffffffffffffffff1673ffffffffffffffffffffffffffffffffffffffff163373ffffffffffffffffffffffffffffffffffffffff16141515610b9e57600080fd5b73__StringUtils___________________________63c7d5052a876040518263ffffffff167c01000000000000000000000000000000000000000000000000000000000281526004018080602001828103825283818151815260200191508051906020019080838360005b83811015610c24578082015181840152602081019050610c09565b50505050905090810190601f168015610c515780820380516001836020036101000a031916815260200191505b509250505060206040518083038186803b158015610c6e57600080fd5b505af4158015610c82573d6000803e3d6000fd5b505050506040513d6020811015610c9857600080fd5b810190808051906020019092919050505094506000808873ffffffffffffffffffffffffffffffffffffffff1673ffffffffffffffffffffffffffffffffffffffff16815260200190815260200160002060009054906101000a900473ffffffffffffffffffffffffffffffffffffffff1693508373ffffffffffffffffffffffffffffffffffffffff1663679aefce6040518163ffffffff167c0100000000000000000000000000000000000000000000000000000000028152600401602060405180830381600087803b158015610d7057600080fd5b505af1158015610d84573d6000803e3d6000fd5b505050506040513d6020811015610d9a57600080fd5b810190808051906020019092919050505092508373ffffffffffffffffffffffffffffffffffffffff166334fcf437866040518263ffffffff167c010000000000000000000000000000000000000000000000000000000002815260040180828152602001915050600060405180830381600087803b158015610e1c57600080fd5b505af1158015610e30573d6000803e3d6000fd5b50505050600091505b600180805490500382111515610fb357600080600184815481101515610e5b57fe5b9060005260206000200160009054906101000a900473ffffffffffffffffffffffffffffffffffffffff1673ffffffffffffffffffffffffffffffffffffffff1673ffffffffffffffffffffffffffffffffffffffff16815260200190815260200160002060009054906101000a900473ffffffffffffffffffffffffffffffffffffffff1690508073ffffffffffffffffffffffffffffffffffffffff1663f6fbb09386858a6040518463ffffffff167c0100000000000000000000000000000000000000000000000000000000028152600401808481526020018381526020018273ffffffffffffffffffffffffffffffffffffffff1673ffffffffffffffffffffffffffffffffffffffff1681526020019350505050600060405180830381600087803b158015610f8e57600080fd5b505af1158015610fa2573d6000803e3d6000fd5b505050508180600101925050610e39565b50505050505050565b6000806000806000600460149054906101000a900460ff161515610fdf57600080fd5b6000808973ffffffffffffffffffffffffffffffffffffffff1673ffffffffffffffffffffffffffffffffffffffff16815260200190815260200160002060009054906101000a900473ffffffffffffffffffffffffffffffffffffffff1694508473ffffffffffffffffffffffffffffffffffffffff1663f87dc2c66040518163ffffffff167c0100000000000000000000000000000000000000000000000000000000028152600401602060405180830381600087803b1580156110a457600080fd5b505af11580156110b8573d6000803e3d6000fd5b505050506040513d60208110156110ce57600080fd5b810190808051906020019092919050505015156110ea57600080fd5b73__StringUtils___________________________63c7d5052a876040518263ffffffff167c01000000000000000000000000000000000000000000000000000000000281526004018080602001828103825283818151815260200191508051906020019080838360005b83811015611170578082015181840152602081019050611155565b50505050905090810190601f16801561119d5780820380516001836020036101000a031916815260200191505b509250505060206040518083038186803b1580156111ba57600080fd5b505af41580156111ce573d6000803e3d6000fd5b505050506040513d60208110156111e457600080fd5b81019080805190602001909291905050509350600073ffffffffffffffffffffffffffffffffffffffff168873ffffffffffffffffffffffffffffffffffffffff16141515611463578792508273ffffffffffffffffffffffffffffffffffffffff1663dd62ed3e33306040518363ffffffff167c0100000000000000000000000000000000000000000000000000000000028152600401808373ffffffffffffffffffffffffffffffffffffffff1673ffffffffffffffffffffffffffffffffffffffff1681526020018273ffffffffffffffffffffffffffffffffffffffff1673ffffffffffffffffffffffffffffffffffffffff16815260200192505050602060405180830381600087803b1580156112ff57600080fd5b505af1158015611313573d6000803e3d6000fd5b505050506040513d602081101561132957600080fd5b8101908080519060200190929190505050915083821015151561134b57600080fd5b8273ffffffffffffffffffffffffffffffffffffffff166323b872dd3389876040518463ffffffff167c0100000000000000000000000000000000000000000000000000000000028152600401808473ffffffffffffffffffffffffffffffffffffffff1673ffffffffffffffffffffffffffffffffffffffff1681526020018373ffffffffffffffffffffffffffffffffffffffff1673ffffffffffffffffffffffffffffffffffffffff1681526020018281526020019350505050602060405180830381600087803b15801561142257600080fd5b505af1158015611436573d6000803e3d6000fd5b505050506040513d602081101561144c57600080fd5b810190808051906020019092919050505050611506565b34905083811015151561147557600080fd5b8673ffffffffffffffffffffffffffffffffffffffff166108fc859081150290604051600060405180830381858888f193505050501580156114bb573d6000803e3d6000fd5b503373ffffffffffffffffffffffffffffffffffffffff166108fc8583039081150290604051600060405180830381858888f19350505050158015611504573d6000803e3d6000fd5b505b5050505050505050565b600460009054906101000a900473ffffffffffffffffffffffffffffffffffffffff1673ffffffffffffffffffffffffffffffffffffffff163373ffffffffffffffffffffffffffffffffffffffff1614151561156c57600080fd5b80600460146101000a81548160ff02191690831515021790555050565b600080600080600080600460149054906101000a900460ff1615156115ad57600080fd5b73__StringUtils___________________________63c7d5052a886040518263ffffffff167c01000000000000000000000000000000000000000000000000000000000281526004018080602001828103825283818151815260200191508051906020019080838360005b83811015611633578082015181840152602081019050611618565b50505050905090810190601f1680156116605780820380516001836020036101000a031916815260200191505b509250505060206040518083038186803b15801561167d57600080fd5b505af4158015611691573d6000803e3d6000fd5b505050506040513d60208110156116a757600080fd5b810190808051906020019092919050505095506000808a73ffffffffffffffffffffffffffffffffffffffff1673ffffffffffffffffffffffffffffffffffffffff16815260200190815260200160002060009054906101000a900473ffffffffffffffffffffffffffffffffffffffff1694508473ffffffffffffffffffffffffffffffffffffffff1663f87dc2c66040518163ffffffff167c0100000000000000000000000000000000000000000000000000000000028152600401602060405180830381600087803b15801561177f57600080fd5b505af1158015611793573d6000803e3d6000fd5b505050506040513d60208110156117a957600080fd5b810190808051906020019092919050505015156117c557600080fd5b6000808973ffffffffffffffffffffffffffffffffffffffff1673ffffffffffffffffffffffffffffffffffffffff16815260200190815260200160002060009054906101000a900473ffffffffffffffffffffffffffffffffffffffff1693508373ffffffffffffffffffffffffffffffffffffffff1663f87dc2c66040518163ffffffff167c0100000000000000000000000000000000000000000000000000000000028152600401602060405180830381600087803b15801561188a57600080fd5b505af115801561189e573d6000803e3d6000fd5b505050506040513d60208110156118b457600080fd5b810190808051906020019092919050505015156118d057600080fd5b600073ffffffffffffffffffffffffffffffffffffffff168973ffffffffffffffffffffffffffffffffffffffff16141515611b9a578892508273ffffffffffffffffffffffffffffffffffffffff1663dd62ed3e33306040518363ffffffff167c0100000000000000000000000000000000000000000000000000000000028152600401808373ffffffffffffffffffffffffffffffffffffffff1673ffffffffffffffffffffffffffffffffffffffff1681526020018273ffffffffffffffffffffffffffffffffffffffff1673ffffffffffffffffffffffffffffffffffffffff16815260200192505050602060405180830381600087803b1580156119d857600080fd5b505af11580156119ec573d6000803e3d6000fd5b505050506040513d6020811015611a0257600080fd5b81019080805190602001909291905050509150858210151515611a2457600080fd5b8273ffffffffffffffffffffffffffffffffffffffff166323b872dd336000808d73ffffffffffffffffffffffffffffffffffffffff1673ffffffffffffffffffffffffffffffffffffffff16815260200190815260200160002060009054906101000a900473ffffffffffffffffffffffffffffffffffffffff16896040518463ffffffff167c0100000000000000000000000000000000000000000000000000000000028152600401808473ffffffffffffffffffffffffffffffffffffffff1673ffffffffffffffffffffffffffffffffffffffff1681526020018373ffffffffffffffffffffffffffffffffffffffff1673ffffffffffffffffffffffffffffffffffffffff1681526020018281526020019350505050602060405180830381600087803b158015611b5957600080fd5b505af1158015611b6d573d6000803e3d6000fd5b505050506040513d6020811015611b8357600080fd5b810190808051906020019092919050505050611c98565b853410151515611ba957600080fd5b6000808a73ffffffffffffffffffffffffffffffffffffffff1673ffffffffffffffffffffffffffffffffffffffff16815260200190815260200160002060009054906101000a900473ffffffffffffffffffffffffffffffffffffffff1673ffffffffffffffffffffffffffffffffffffffff166108fc879081150290604051600060405180830381858888f19350505050158015611c4d573d6000803e3d6000fd5b503373ffffffffffffffffffffffffffffffffffffffff166108fc8734039081150290604051600060405180830381858888f19350505050158015611c96573d6000803e3d6000fd5b505b8473ffffffffffffffffffffffffffffffffffffffff1663321258be33886040518363ffffffff167c0100000000000000000000000000000000000000000000000000000000028152600401808373ffffffffffffffffffffffffffffffffffffffff1673ffffffffffffffffffffffffffffffffffffffff16815260200182815260200192505050600060405180830381600087803b158015611d3b57600080fd5b505af1158015611d4f573d6000803e3d6000fd5b50505050611d5e83898861317e565b90508373ffffffffffffffffffffffffffffffffffffffff16630f07d0c533838c6040518463ffffffff167c0100000000000000000000000000000000000000000000000000000000028152600401808473ffffffffffffffffffffffffffffffffffffffff1673ffffffffffffffffffffffffffffffffffffffff1681526020018381526020018273ffffffffffffffffffffffffffffffffffffffff1673ffffffffffffffffffffffffffffffffffffffff1681526020019350505050600060405180830381600087803b158015611e3757600080fd5b505af1158015611e4b573d6000803e3d6000fd5b50505050505050505050505050565b6000600460009054906101000a900473ffffffffffffffffffffffffffffffffffffffff1673ffffffffffffffffffffffffffffffffffffffff163373ffffffffffffffffffffffffffffffffffffffff16141515611eb857600080fd5b600090505b6001805490508160ff161015611f5b5760018160ff16815481101515611edf57fe5b9060005260206000200160009054906101000a900473ffffffffffffffffffffffffffffffffffffffff1673ffffffffffffffffffffffffffffffffffffffff168273ffffffffffffffffffffffffffffffffffffffff161415611f4e57611f498160ff1661341e565b611f5b565b8080600101915050611ebd565b6000808373ffffffffffffffffffffffffffffffffffffffff1673ffffffffffffffffffffffffffffffffffffffff16815260200190815260200160002060006101000a81549073ffffffffffffffffffffffffffffffffffffffff02191690555050565b600460009054906101000a900473ffffffffffffffffffffffffffffffffffffffff1681565b6000600460009054906101000a900473ffffffffffffffffffffffffffffffffffffffff1673ffffffffffffffffffffffffffffffffffffffff163373ffffffffffffffffffffffffffffffffffffffff1614151561204457600080fd5b6000808473ffffffffffffffffffffffffffffffffffffffff1673ffffffffffffffffffffffffffffffffffffffff16815260200190815260200160002060009054906101000a900473ffffffffffffffffffffffffffffffffffffffff1690508073ffffffffffffffffffffffffffffffffffffffff16633fd1bc8a836040518263ffffffff167c01000000000000000000000000000000000000000000000000000000000281526004018082151515158152602001915050600060405180830381600087803b15801561211857600080fd5b505af115801561212c573d6000803e3d6000fd5b50505050505050565b6000806000600460009054906101000a900473ffffffffffffffffffffffffffffffffffffffff1673ffffffffffffffffffffffffffffffffffffffff163373ffffffffffffffffffffffffffffffffffffffff1614151561219657600080fd5b8573ffffffffffffffffffffffffffffffffffffffff16639d76ea586040518163ffffffff167c0100000000000000000000000000000000000000000000000000000000028152600401602060405180830381600087803b1580156121fa57600080fd5b505af115801561220e573d6000803e3d6000fd5b505050506040513d602081101561222457600080fd5b81019080805190602001909291905050509250829150600073ffffffffffffffffffffffffffffffffffffffff168373ffffffffffffffffffffffffffffffffffffffff161415156125155773__StringUtils___________________________6346bdca9a866040518263ffffffff167c0100000000000000000000000000000000000000000000000000000000028152600401808060200180602001838103835284818151815260200191508051906020019080838360005b838110156122fa5780820151818401526020810190506122df565b50505050905090810190601f1680156123275780820380516001836020036101000a031916815260200191505b50838103825260038152602001807f4554480000000000000000000000000000000000000000000000000000000000815250602001935050505060206040518083038186803b15801561237957600080fd5b505af415801561238d573d6000803e3d6000fd5b505050506040513d60208110156123a357600080fd5b81019080805190602001909291905050501515156123c057600080fd5b73__StringUtils___________________________6346bdca9a856040518263ffffffff167c0100000000000000000000000000000000000000000000000000000000028152600401808060200180602001838103835284818151815260200191508051906020019080838360005b8381101561244a57808201518184015260208101905061242f565b50505050905090810190601f1680156124775780820380516001836020036101000a031916815260200191505b50838103825260088152602001807f457468657265756d000000000000000000000000000000000000000000000000815250602001935050505060206040518083038186803b1580156124c957600080fd5b505af41580156124dd573d6000803e3d6000fd5b505050506040513d60208110156124f357600080fd5b810190808051906020019092919050505015151561251057600080fd5b6127b4565b73__StringUtils___________________________6346bdca9a866040518263ffffffff167c0100000000000000000000000000000000000000000000000000000000028152600401808060200180602001838103835284818151815260200191508051906020019080838360005b8381101561259f578082015181840152602081019050612584565b50505050905090810190601f1680156125cc5780820380516001836020036101000a031916815260200191505b50838103825260038152602001807f4554480000000000000000000000000000000000000000000000000000000000815250602001935050505060206040518083038186803b15801561261e57600080fd5b505af4158015612632573d6000803e3d6000fd5b505050506040513d602081101561264857600080fd5b8101908080519060200190929190505050151561266457600080fd5b73__StringUtils___________________________6346bdca9a856040518263ffffffff167c0100000000000000000000000000000000000000000000000000000000028152600401808060200180602001838103835284818151815260200191508051906020019080838360005b838110156126ee5780820151818401526020810190506126d3565b50505050905090810190601f16801561271b5780820380516001836020036101000a031916815260200191505b50838103825260088152602001807f457468657265756d000000000000000000000000000000000000000000000000815250602001935050505060206040518083038186803b15801561276d57600080fd5b505af4158015612781573d6000803e3d6000fd5b505050506040513d602081101561279757600080fd5b810190808051906020019092919050505015156127b357600080fd5b5b600090505b6001805490508160ff161015612bc55760018160ff168154811015156127db57fe5b9060005260206000200160009054906101000a900473ffffffffffffffffffffffffffffffffffffffff1673ffffffffffffffffffffffffffffffffffffffff168373ffffffffffffffffffffffffffffffffffffffff161415151561284057600080fd5b73__StringUtils___________________________6346bdca9a8660028460ff1681548110151561286d57fe5b906000526020600020016040518363ffffffff167c0100000000000000000000000000000000000000000000000000000000028152600401808060200180602001838103835285818151815260200191508051906020019080838360005b838110156128e65780820151818401526020810190506128cb565b50505050905090810190601f1680156129135780820380516001836020036101000a031916815260200191505b508381038252848181546001816001161561010002031660029004815260200191508054600181600116156101000203166002900480156129955780601f1061296a57610100808354040283529160200191612995565b820191906000526020600020905b81548152906001019060200180831161297857829003601f168201915b505094505050505060206040518083038186803b1580156129b557600080fd5b505af41580156129c9573d6000803e3d6000fd5b505050506040513d60208110156129df57600080fd5b81019080805190602001909291905050501515156129fc57600080fd5b73__StringUtils___________________________6346bdca9a8560038460ff16815481101515612a2957fe5b906000526020600020016040518363ffffffff167c0100000000000000000000000000000000000000000000000000000000028152600401808060200180602001838103835285818151815260200191508051906020019080838360005b83811015612aa2578082015181840152602081019050612a87565b50505050905090810190601f168015612acf5780820380516001836020036101000a031916815260200191505b50838103825284818154600181600116156101000203166002900481526020019150805460018160011615610100020316600290048015612b515780601f10612b2657610100808354040283529160200191612b51565b820191906000526020600020905b815481529060010190602001808311612b3457829003601f168201915b505094505050505060206040518083038186803b158015612b7157600080fd5b505af4158015612b85573d6000803e3d6000fd5b505050506040513d6020811015612b9b57600080fd5b8101908080519060200190929190505050151515612bb857600080fd5b80806001019150506127b9565b856000808473ffffffffffffffffffffffffffffffffffffffff1673ffffffffffffffffffffffffffffffffffffffff16815260200190815260200160002060006101000a81548173ffffffffffffffffffffffffffffffffffffffff021916908373ffffffffffffffffffffffffffffffffffffffff16021790555060018390806001815401808255809150509060018203906000526020600020016000909192909190916101000a81548173ffffffffffffffffffffffffffffffffffffffff021916908373ffffffffffffffffffffffffffffffffffffffff160217905550506002859080600181540180825580915050906001820390600052602060002001600090919290919091509080519060200190612ce592919061365f565b50506003849080600181540180825580915050906001820390600052602060002001600090919290919091509080519060200190612d2492919061365f565b5050505050505050565b60008060008073__StringUtils___________________________63c7d5052a866040518263ffffffff167c01000000000000000000000000000000000000000000000000000000000281526004018080602001828103825283818151815260200191508051906020019080838360005b83811015612dba578082015181840152602081019050612d9f565b50505050905090810190601f168015612de75780820380516001836020036101000a031916815260200191505b509250505060206040518083038186803b158015612e0457600080fd5b505af4158015612e18573d6000803e3d6000fd5b505050506040513d6020811015612e2e57600080fd5b81019080805190602001909291905050509250670de0b6b3a76400009150600073ffffffffffffffffffffffffffffffffffffffff168773ffffffffffffffffffffffffffffffffffffffff16141515612f82576000808873ffffffffffffffffffffffffffffffffffffffff1673ffffffffffffffffffffffffffffffffffffffff16815260200190815260200160002060009054906101000a900473ffffffffffffffffffffffffffffffffffffffff1673ffffffffffffffffffffffffffffffffffffffff1663679aefce6040518163ffffffff167c0100000000000000000000000000000000000000000000000000000000028152600401602060405180830381600087803b158015612f4457600080fd5b505af1158015612f58573d6000803e3d6000fd5b505050506040513d6020811015612f6e57600080fd5b810190808051906020019092919050505091505b670de0b6b3a76400009050600073ffffffffffffffffffffffffffffffffffffffff168673ffffffffffffffffffffffffffffffffffffffff161415156130c3576000808773ffffffffffffffffffffffffffffffffffffffff1673ffffffffffffffffffffffffffffffffffffffff16815260200190815260200160002060009054906101000a900473ffffffffffffffffffffffffffffffffffffffff1673ffffffffffffffffffffffffffffffffffffffff1663679aefce6040518163ffffffff167c0100000000000000000000000000000000000000000000000000000000028152600401602060405180830381600087803b15801561308557600080fd5b505af1158015613099573d6000803e3d6000fd5b505050506040513d60208110156130af57600080fd5b810190808051906020019092919050505090505b818184028115156130d057fe5b0493505050509392505050565b6060600180548060200260200160405190810160405280929190818152602001828054801561316157602002820191906000526020600020905b8160009054906101000a900473ffffffffffffffffffffffffffffffffffffffff1673ffffffffffffffffffffffffffffffffffffffff1681526020019060010190808311613117575b5050505050905090565b600460149054906101000a900460ff1681565b6000806000670de0b6b3a76400009150600073ffffffffffffffffffffffffffffffffffffffff168673ffffffffffffffffffffffffffffffffffffffff161415156132c4576000808773ffffffffffffffffffffffffffffffffffffffff1673ffffffffffffffffffffffffffffffffffffffff16815260200190815260200160002060009054906101000a900473ffffffffffffffffffffffffffffffffffffffff1673ffffffffffffffffffffffffffffffffffffffff1663679aefce6040518163ffffffff167c0100000000000000000000000000000000000000000000000000000000028152600401602060405180830381600087803b15801561328657600080fd5b505af115801561329a573d6000803e3d6000fd5b505050506040513d60208110156132b057600080fd5b810190808051906020019092919050505091505b670de0b6b3a76400009050600073ffffffffffffffffffffffffffffffffffffffff168573ffffffffffffffffffffffffffffffffffffffff16141515613405576000808673ffffffffffffffffffffffffffffffffffffffff1673ffffffffffffffffffffffffffffffffffffffff16815260200190815260200160002060009054906101000a900473ffffffffffffffffffffffffffffffffffffffff1673ffffffffffffffffffffffffffffffffffffffff1663679aefce6040518163ffffffff167c0100000000000000000000000000000000000000000000000000000000028152600401602060405180830381600087803b1580156133c757600080fd5b505af11580156133db573d6000803e3d6000fd5b505050506040513d60208110156133f157600080fd5b810190808051906020019092919050505090505b8181850281151561341257fe5b04925050509392505050565b60008190505b600180805490500381101561357d57600180820181548110151561344457fe5b9060005260206000200160009054906101000a900473ffffffffffffffffffffffffffffffffffffffff1660018281548110151561347e57fe5b9060005260206000200160006101000a81548173ffffffffffffffffffffffffffffffffffffffff021916908373ffffffffffffffffffffffffffffffffffffffff1602179055506002600182018154811015156134d857fe5b906000526020600020016002828154811015156134f157fe5b90600052602060002001908054600181600116156101000203166002900461351a9291906136df565b5060036001820181548110151561352d57fe5b9060005260206000200160038281548110151561354657fe5b90600052602060002001908054600181600116156101000203166002900461356f9291906136df565b508080600101915050613424565b60018080805490500381548110151561359257fe5b9060005260206000200160006101000a81549073ffffffffffffffffffffffffffffffffffffffff021916905560026001600280549050038154811015156135d657fe5b9060005260206000200160006135ec9190613766565b600360016003805490500381548110151561360357fe5b9060005260206000200160006136199190613766565b600180548091906001900361362e91906137ae565b50600280548091906001900361364491906137da565b50600380548091906001900361365a91906137da565b505050565b828054600181600116156101000203166002900490600052602060002090601f016020900481019282601f106136a057805160ff19168380011785556136ce565b828001600101855582156136ce579182015b828111156136cd5782518255916020019190600101906136b2565b5b5090506136db9190613806565b5090565b828054600181600116156101000203166002900490600052602060002090601f016020900481019282601f106137185780548555613755565b8280016001018555821561375557600052602060002091601f016020900482015b82811115613754578254825591600101919060010190613739565b5b5090506137629190613806565b5090565b50805460018160011615610100020316600290046000825580601f1061378c57506137ab565b601f0160209004906000526020600020908101906137aa9190613806565b5b50565b8154818355818111156137d5578183600052602060002091820191016137d49190613806565b5b505050565b81548183558181111561380157818360005260206000209182019101613800919061382b565b5b505050565b61382891905b8082111561382457600081600090555060010161380c565b5090565b90565b61385491905b8082111561385057600081816138479190613766565b50600101613831565b5090565b905600a165627a7a723058205097876eca7c1e0aa838f4df26dcae5f19be2c6c64bf985c3fbda0a38246598b0029",
  "source": "pragma solidity ^0.4.17;\r\n\r\nimport './Reserve.sol';\r\nimport './ERC20_Token.sol';\r\n\r\nimport '../libraries/StringUtils.sol';\r\n\r\ncontract Exchange {\r\n    using StringUtils for string;\r\n    \r\n    mapping(address => address) reserves;\r\n    address[] tokenAddresses;\r\n    string[] tokenSymbols;\r\n    string[] tokenNames;\r\n    address public owner;\r\n    bool public tradeEnable;\r\n    \r\n    modifier onlyOwner {\r\n      require(msg.sender == owner);\r\n      _;\r\n    }\r\n    \r\n    // constructor\r\n    function Exchange (bool isTradeEnable) public {\r\n        owner = msg.sender;\r\n        tradeEnable = isTradeEnable;\r\n    }\r\n    \r\n    // READING DATA FUNCTIONS\r\n    \r\n        // get list of supported tokens\r\n        function getListOfSupportedTokens() public view returns (address[]) {\r\n            return tokenAddresses;\r\n        }\r\n        \r\n        // Get Swapped Amount (Amount of destination token will received)\r\n        function computeReceivedSwapAmountPublic(address sourceTokenAddress, address destinationTokenAddress, string amountString) public view returns (uint256){\r\n            uint256 amount = StringUtils.convertStringOfFloatToInt(amountString);\r\n            uint256 sourceRate = 1000000000000000000;\r\n            if (sourceTokenAddress != address(0)) {\r\n                sourceRate = Reserve(reserves[sourceTokenAddress]).getRate();\r\n            }\r\n            uint256 destinationRate = 1000000000000000000;\r\n            if (destinationTokenAddress != address(0)) {\r\n                destinationRate = Reserve(reserves[destinationTokenAddress]).getRate();\r\n            }\r\n            return amount * destinationRate / sourceRate;\r\n        }\r\n        \r\n        // Get Swapped Amount (Amount of destination token will received)\r\n        function computeReceivedSwapAmount(address sourceTokenAddress, address destinationTokenAddress, uint256 amount) private view returns (uint256){\r\n            uint256 sourceRate = 1000000000000000000;\r\n            if (sourceTokenAddress != address(0)) {\r\n                sourceRate = Reserve(reserves[sourceTokenAddress]).getRate();\r\n            }\r\n            uint256 destinationRate = 1000000000000000000;\r\n            if (destinationTokenAddress != address(0)) {\r\n                destinationRate = Reserve(reserves[destinationTokenAddress]).getRate();\r\n            }\r\n            return amount * destinationRate / sourceRate;\r\n        }\r\n        \r\n        // Get token address by token's symbol\r\n        function getTokenAddressBySymbolOrName(string symbolOrName) public view returns (address) {\r\n            for (uint8 index = 0; index < tokenSymbols.length; index++) {\r\n                if (StringUtils.equal(symbolOrName, tokenSymbols[index])\r\n                    ||\r\n                    StringUtils.equal(symbolOrName, tokenNames[index])\r\n                    ) {\r\n                    return tokenAddresses[index];\r\n                }\r\n            }\r\n        }\r\n        \r\n        // Get reserve by token address\r\n        function getReserveByTokenAddress(address tokenAddress) public view returns (address) {\r\n            return reserves[tokenAddress];\r\n        }\r\n    \r\n    // UPDATING DATA FUNCTIONS\r\n        //\r\n        function setExchangeTradeEnable(bool isTradeEnable) public onlyOwner {\r\n            tradeEnable = isTradeEnable;\r\n        }\r\n        \r\n        function setReserveTradeEnable(address tokenAddress, bool isTradeEnable) public onlyOwner {\r\n            Reserve reserve = Reserve(reserves[tokenAddress]);\r\n            reserve.setTradeEnable(isTradeEnable);\r\n        }\r\n        \r\n        // add new reserve\r\n        function addReserve(Reserve newReserve, string symbol, string name) public onlyOwner{\r\n            // get token\r\n            address tokenAddress = newReserve.tokenAddress();\r\n            Token token = Token(tokenAddress);\r\n            if (tokenAddress != address(0)) {\r\n                require(!StringUtils.equal(symbol, 'ETH'));\r\n                require(!StringUtils.equal(name, 'Ethereum'));\r\n            } else {\r\n                require(StringUtils.equal(symbol, 'ETH'));\r\n                require(StringUtils.equal(name, 'Ethereum'));\r\n            }\r\n            // Validate new token: new token must not exist in tokenAddresses\r\n            for (uint8 index = 0; index < tokenAddresses.length; index++){\r\n                require(tokenAddress != tokenAddresses[index]);\r\n                require(!StringUtils.equal(symbol, tokenSymbols[index]));\r\n                require(!StringUtils.equal(name, tokenNames[index]));\r\n            }\r\n            // mapping token to reserve\r\n            reserves[token] = newReserve;\r\n            // add token to list of tokens (Using in getting list of supported token)\r\n            tokenAddresses.push(tokenAddress);\r\n            // Add token's symbol to tokenSymbols\r\n            tokenSymbols.push(symbol);\r\n            // Add token's name to tokenSymbols\r\n            tokenNames.push(name);\r\n        }\r\n        \r\n        // Remove reserve\r\n        function removeReserve(address tokenAddress) public onlyOwner {\r\n            for (uint8 index = 0; index < tokenAddresses.length; index++) {\r\n                if (tokenAddress == tokenAddresses[index]) {\r\n                    removeReserveData(index);\r\n                    break;\r\n                }\r\n            }\r\n            delete reserves[tokenAddress];\r\n        }\r\n        \r\n        function removeReserveData(uint256 index) private {\r\n            // y cc Order t pha sau ln pha trc 1 n v\r\n            for (uint i = index; i < tokenAddresses.length-1; i++){\r\n                tokenAddresses[i] = tokenAddresses[i+1];\r\n                tokenSymbols[i] = tokenSymbols[i+1];\r\n                tokenNames[i] = tokenNames[i+1];\r\n            }\r\n            // Xa b phn t cui cng\r\n            delete tokenAddresses[tokenAddresses.length-1];\r\n            delete tokenSymbols[tokenSymbols.length-1];\r\n            delete tokenNames[tokenNames.length-1];\r\n            // Tr i length ca i 1 n v\r\n            tokenAddresses.length--;\r\n            tokenSymbols.length--;\r\n            tokenNames.length--;\r\n        }\r\n        \r\n        \r\n        // Register Swap Order\r\n        function registerSwapOrder(address sourceTokenAddress, address destinationTokenAddress, string amountString) public payable {\r\n            require(tradeEnable);\r\n            \r\n            uint256 amount = StringUtils.convertStringOfFloatToInt(amountString);\r\n            // Kim tra xem source reserve token c ang tradeEnable khng\r\n            Reserve sourceReserve = Reserve(reserves[sourceTokenAddress]);\r\n            require(sourceReserve.tradeEnable());\r\n            // Kim tra xem destination reserve token c ang tradeEnable khng\r\n            Reserve destinationReserve = Reserve(reserves[destinationTokenAddress]);\r\n            require(destinationReserve.tradeEnable());\r\n            \r\n            if (sourceTokenAddress != address(0)){\r\n                // Get allowance of msg.sender to Exchange\r\n                Token sourceToken = Token(sourceTokenAddress);\r\n                // Kim tra xem lng Token c Approve c   to Swap Order khng\r\n                uint256 allowance = sourceToken.allowance(msg.sender, this);\r\n                require(allowance >= amount);\r\n                // Chuyn lng token va  cho Source Reserve  to Swap Order\r\n                sourceToken.transferFrom(msg.sender, reserves[sourceTokenAddress], amount);\r\n            } else {\r\n                // Kim tra xem lng Ether c nhn c   to Swap Order khng\r\n                require(msg.value >= amount);\r\n                // Chuyn lng Ether va  cho Source Reserve  to Swap Order\r\n                reserves[sourceTokenAddress].transfer(amount);\r\n                // Gi tr li lng ether cn tha\r\n                msg.sender.transfer(msg.value - amount);\r\n            }\r\n            \r\n            // Process Sell Order\r\n                // Process new order\r\n                sourceReserve.processNewSellOrder(msg.sender, amount);\r\n            \r\n            // Process Buy Order\r\n                // Compute received amount of destination token\r\n                uint256 buyAmount = computeReceivedSwapAmount(sourceToken, destinationTokenAddress, amount);\r\n                // Process new order\r\n                destinationReserve.processNewBuyOrder(msg.sender, buyAmount, sourceTokenAddress);\r\n        }\r\n\r\n    \r\n        // Transfer Token\r\n        function tranferToken(address tokenAddress, address receiver, string amountString) public payable {\r\n            require(tradeEnable);\r\n            //\r\n            Reserve reserve = Reserve(reserves[tokenAddress]);\r\n            require(reserve.tradeEnable());\r\n            \r\n            uint256 amount = StringUtils.convertStringOfFloatToInt(amountString);\r\n            if (tokenAddress != address(0)){\r\n                // Get allowance of msg.sender to Exchange\r\n                Token token = Token(tokenAddress);\r\n                uint256 allowance = token.allowance(msg.sender, this);\r\n                // Kim tra xem lng Token c Approve c   to Swap Order khng\r\n                require(allowance >= amount);\r\n                // Transfer token\r\n                token.transferFrom(msg.sender, receiver, amount);\r\n            } else {\r\n                // Get value of ether transfered with function call\r\n                uint256 value = msg.value;\r\n                // Kim tra xem lng Ether c gi c   transfer khng\r\n                require(value >= amount);\r\n                // Chuyn lng Ether va  cho ngi nhn\r\n                receiver.transfer(amount);\r\n                // Tr li lng ether cn d\r\n                msg.sender.transfer(value - amount);\r\n            }\r\n        }\r\n        \r\n        // Set new rate for a token\r\n        function setRate(address tokenAddress, string rateString) public onlyOwner {\r\n            uint256 rate = StringUtils.convertStringOfFloatToInt(rateString);\r\n            // Ly ra Reserve tng ng\r\n            Reserve correspondingReserve = Reserve(reserves[tokenAddress]);\r\n            // Ly ra gi tr 'oldRate'\r\n            uint256 oldRate = correspondingReserve.getRate();\r\n            // Cp nht Rate mi\r\n            correspondingReserve.setRate(rate);\r\n            // Cp nht amount trong BuyOrderBook  tt c cc reserves\r\n            for (uint256 index = 0; index <= tokenAddresses.length - 1; index++) {\r\n                // Ly ra reserve tng ng\r\n                Reserve aReserve = Reserve(reserves[tokenAddresses[index]]);\r\n                // // Thc hin cp nht amount  BuyOrderBook\r\n                aReserve.updateBuyOrderBookAmount(rate, oldRate, tokenAddress);\r\n            }\r\n        }\r\n}",
  "sourcePath": "E:\\frontend-skeleton\\deployment\\contracts\\Exchange.sol",
  "compiler": {
    "name": "solc",
    "version": "0.4.26+commit.4563c3fc.Emscripten.clang"
  },
  "schemaVersion": "3.4.7",
  "updatedAt": "2022-06-29T06:47:02.975Z",
  "devdoc": {
    "methods": {}
  },
  "userdoc": {
    "methods": {}
  }
}