{
  "contractName": "Reserve",
  "abi": [
    {
      "constant": true,
      "inputs": [],
      "name": "totalSellAmount",
      "outputs": [
        {
          "name": "",
          "type": "uint256"
        }
      ],
      "payable": false,
      "stateMutability": "view",
      "type": "function"
    },
    {
      "constant": true,
      "inputs": [],
      "name": "owner",
      "outputs": [
        {
          "name": "",
          "type": "address"
        }
      ],
      "payable": false,
      "stateMutability": "view",
      "type": "function"
    },
    {
      "constant": true,
      "inputs": [],
      "name": "tokenAddress",
      "outputs": [
        {
          "name": "",
          "type": "address"
        }
      ],
      "payable": false,
      "stateMutability": "view",
      "type": "function"
    },
    {
      "constant": true,
      "inputs": [],
      "name": "exchange",
      "outputs": [
        {
          "name": "",
          "type": "address"
        }
      ],
      "payable": false,
      "stateMutability": "view",
      "type": "function"
    },
    {
      "constant": true,
      "inputs": [],
      "name": "totalBuyAmount",
      "outputs": [
        {
          "name": "",
          "type": "uint256"
        }
      ],
      "payable": false,
      "stateMutability": "view",
      "type": "function"
    },
    {
      "constant": true,
      "inputs": [],
      "name": "tradeEnable",
      "outputs": [
        {
          "name": "",
          "type": "bool"
        }
      ],
      "payable": false,
      "stateMutability": "view",
      "type": "function"
    },
    {
      "inputs": [
        {
          "name": "newToken",
          "type": "address"
        },
        {
          "name": "isTradeEnable",
          "type": "bool"
        },
        {
          "name": "rateString",
          "type": "string"
        }
      ],
      "payable": false,
      "stateMutability": "nonpayable",
      "type": "constructor"
    },
    {
      "payable": true,
      "stateMutability": "payable",
      "type": "fallback"
    },
    {
      "constant": false,
      "inputs": [
        {
          "name": "newExchange",
          "type": "address"
        }
      ],
      "name": "setExchange",
      "outputs": [],
      "payable": false,
      "stateMutability": "nonpayable",
      "type": "function"
    },
    {
      "constant": false,
      "inputs": [
        {
          "name": "newRate",
          "type": "uint256"
        },
        {
          "name": "oldRate",
          "type": "uint256"
        },
        {
          "name": "sourceTokenAddress",
          "type": "address"
        }
      ],
      "name": "updateBuyOrderBookAmount",
      "outputs": [],
      "payable": false,
      "stateMutability": "nonpayable",
      "type": "function"
    },
    {
      "constant": true,
      "inputs": [],
      "name": "getRate",
      "outputs": [
        {
          "name": "",
          "type": "uint256"
        }
      ],
      "payable": false,
      "stateMutability": "view",
      "type": "function"
    },
    {
      "constant": false,
      "inputs": [
        {
          "name": "newRate",
          "type": "uint256"
        }
      ],
      "name": "setRate",
      "outputs": [],
      "payable": false,
      "stateMutability": "nonpayable",
      "type": "function"
    },
    {
      "constant": false,
      "inputs": [
        {
          "name": "isTradeEnable",
          "type": "bool"
        }
      ],
      "name": "setTradeEnable",
      "outputs": [],
      "payable": false,
      "stateMutability": "nonpayable",
      "type": "function"
    },
    {
      "constant": true,
      "inputs": [],
      "name": "getReserveEthBalance",
      "outputs": [
        {
          "name": "",
          "type": "uint256"
        }
      ],
      "payable": false,
      "stateMutability": "view",
      "type": "function"
    },
    {
      "constant": false,
      "inputs": [
        {
          "name": "trader",
          "type": "address"
        },
        {
          "name": "amount",
          "type": "uint256"
        }
      ],
      "name": "processNewSellOrder",
      "outputs": [],
      "payable": false,
      "stateMutability": "nonpayable",
      "type": "function"
    },
    {
      "constant": false,
      "inputs": [
        {
          "name": "trader",
          "type": "address"
        },
        {
          "name": "amount",
          "type": "uint256"
        },
        {
          "name": "sourceTokenAddress",
          "type": "address"
        }
      ],
      "name": "processNewBuyOrder",
      "outputs": [],
      "payable": false,
      "stateMutability": "nonpayable",
      "type": "function"
    }
  ],
  "bytecode": "0x608060405234801561001057600080fd5b506040516116d23803806116d283398101806040528101908080519060200190929190805190602001909291908051820192919050505073__StringUtils___________________________63c7d5052a826040518263ffffffff167c01000000000000000000000000000000000000000000000000000000000281526004018080602001828103825283818151815260200191508051906020019080838360005b838110156100cd5780820151818401526020810190506100b2565b50505050905090810190601f1680156100fa5780820380516001836020036101000a031916815260200191505b509250505060206040518083038186803b15801561011757600080fd5b505af415801561012b573d6000803e3d6000fd5b505050506040513d602081101561014157600080fd5b810190808051906020019092919050505060018190555060006001541415151561016a57600080fd5b33600660006101000a81548173ffffffffffffffffffffffffffffffffffffffff021916908373ffffffffffffffffffffffffffffffffffffffff160217905550826000806101000a81548173ffffffffffffffffffffffffffffffffffffffff021916908373ffffffffffffffffffffffffffffffffffffffff16021790555081600760146101000a81548160ff0219169083151502179055505050506114bb806102176000396000f3006080604052600436106100d0576000357c0100000000000000000000000000000000000000000000000000000000900463ffffffff1680630f07d0c5146100d2578063321258be1461013f57806334fcf4371461018c5780633fd1bc8a146101b95780635dd8d06d146101e8578063679aefce1461021357806367b1f5df1461023e5780638da5cb5b14610281578063974f99cb146102d85780639d76ea5814610303578063d2f7265a1461035a578063f6fbb093146103b1578063f7fe496514610408578063f87dc2c614610433575b005b3480156100de57600080fd5b5061013d600480360381019080803573ffffffffffffffffffffffffffffffffffffffff16906020019092919080359060200190929190803573ffffffffffffffffffffffffffffffffffffffff169060200190929190505050610462565b005b34801561014b57600080fd5b5061018a600480360381019080803573ffffffffffffffffffffffffffffffffffffffff16906020019092919080359060200190929190505050610895565b005b34801561019857600080fd5b506101b760048036038101908080359060200190929190505050610d07565b005b3480156101c557600080fd5b506101e6600480360381019080803515159060200190929190505050610d6d565b005b3480156101f457600080fd5b506101fd610de6565b6040518082815260200191505060405180910390f35b34801561021f57600080fd5b50610228610dec565b6040518082815260200191505060405180910390f35b34801561024a57600080fd5b5061027f600480360381019080803573ffffffffffffffffffffffffffffffffffffffff169060200190929190505050610df6565b005b34801561028d57600080fd5b50610296610e96565b604051808273ffffffffffffffffffffffffffffffffffffffff1673ffffffffffffffffffffffffffffffffffffffff16815260200191505060405180910390f35b3480156102e457600080fd5b506102ed610ebc565b6040518082815260200191505060405180910390f35b34801561030f57600080fd5b50610318610edb565b604051808273ffffffffffffffffffffffffffffffffffffffff1673ffffffffffffffffffffffffffffffffffffffff16815260200191505060405180910390f35b34801561036657600080fd5b5061036f610f00565b604051808273ffffffffffffffffffffffffffffffffffffffff1673ffffffffffffffffffffffffffffffffffffffff16815260200191505060405180910390f35b3480156103bd57600080fd5b506104066004803603810190808035906020019092919080359060200190929190803573ffffffffffffffffffffffffffffffffffffffff169060200190929190505050610f26565b005b34801561041457600080fd5b5061041d6111a1565b6040518082815260200191505060405180910390f35b34801561043f57600080fd5b506104486111a7565b604051808215151515815260200191505060405180910390f35b60008060008061047061139a565b600760009054906101000a900473ffffffffffffffffffffffffffffffffffffffff1673ffffffffffffffffffffffffffffffffffffffff163373ffffffffffffffffffffffffffffffffffffffff161415156104cc57600080fd5b8694506000600454111561075e57600092505b6001600380549050038361ffff161115156105d35760038361ffff1681548110151561050757fe5b906000526020600020906003020160010154871015156105605760038361ffff1681548110151561053457fe5b906000526020600020906003020160010154935061055260036111ba565b828060019003935050610596565b8693508660038461ffff1681548110151561057757fe5b9060005260206000209060030201600101600082825403925050819055505b83870396508360046000828254039250508190555060008714806105bc57506000600454145b156105c6576105d3565b82806001019350506104df565b6000809054906101000a900473ffffffffffffffffffffffffffffffffffffffff169150600073ffffffffffffffffffffffffffffffffffffffff168273ffffffffffffffffffffffffffffffffffffffff16141515610713578173ffffffffffffffffffffffffffffffffffffffff1663a9059cbb898988036040518363ffffffff167c0100000000000000000000000000000000000000000000000000000000028152600401808373ffffffffffffffffffffffffffffffffffffffff1673ffffffffffffffffffffffffffffffffffffffff16815260200182815260200192505050602060405180830381600087803b1580156106d257600080fd5b505af11580156106e6573d6000803e3d6000fd5b505050506040513d60208110156106fc57600080fd5b81019080805190602001909291905050505061075d565b8773ffffffffffffffffffffffffffffffffffffffff166108fc8887039081150290604051600060405180830381858888f1935050505015801561075b573d6000803e3d6000fd5b505b5b600087111561088b57866005600082825401925050819055506060604051908101604052808973ffffffffffffffffffffffffffffffffffffffff1681526020018881526020018773ffffffffffffffffffffffffffffffffffffffff1681525090506002819080600181540180825580915050906001820390600052602060002090600302016000909192909190915060008201518160000160006101000a81548173ffffffffffffffffffffffffffffffffffffffff021916908373ffffffffffffffffffffffffffffffffffffffff1602179055506020820151816001015560408201518160020160006101000a81548173ffffffffffffffffffffffffffffffffffffffff021916908373ffffffffffffffffffffffffffffffffffffffff1602179055505050505b5050505050505050565b6000806000806108a361139a565b600760009054906101000a900473ffffffffffffffffffffffffffffffffffffffff1673ffffffffffffffffffffffffffffffffffffffff163373ffffffffffffffffffffffffffffffffffffffff161415156108ff57600080fd5b60006005541115610bd1576000809054906101000a900473ffffffffffffffffffffffffffffffffffffffff169250600091505b6001600280549050038261ffff16111515610bd05760028261ffff1681548110151561095b57fe5b906000526020600020906003020160000160009054906101000a900473ffffffffffffffffffffffffffffffffffffffff16945060028261ffff168154811015156109a257fe5b906000526020600020906003020160010154861015156109fb5760028261ffff168154811015156109cf57fe5b90600052602060002090600302016001015493506109ed60026111ba565b818060019003925050610a31565b8593508560028361ffff16815481101515610a1257fe5b9060005260206000209060030201600101600082825403925050819055505b8386039550600073ffffffffffffffffffffffffffffffffffffffff168373ffffffffffffffffffffffffffffffffffffffff16141515610b50578273ffffffffffffffffffffffffffffffffffffffff1663a9059cbb86866040518363ffffffff167c0100000000000000000000000000000000000000000000000000000000028152600401808373ffffffffffffffffffffffffffffffffffffffff1673ffffffffffffffffffffffffffffffffffffffff16815260200182815260200192505050602060405180830381600087803b158015610b0f57600080fd5b505af1158015610b23573d6000803e3d6000fd5b505050506040513d6020811015610b3957600080fd5b810190808051906020019092919050505050610b98565b8473ffffffffffffffffffffffffffffffffffffffff166108fc859081150290604051600060405180830381858888f19350505050158015610b96573d6000803e3d6000fd5b505b836005600082825403925050819055506000861480610bb957506000600554145b15610bc357610bd0565b8180600101925050610933565b5b6000861115610cfe57856004600082825401925050819055506060604051908101604052808873ffffffffffffffffffffffffffffffffffffffff1681526020018781526020018473ffffffffffffffffffffffffffffffffffffffff1681525090506003819080600181540180825580915050906001820390600052602060002090600302016000909192909190915060008201518160000160006101000a81548173ffffffffffffffffffffffffffffffffffffffff021916908373ffffffffffffffffffffffffffffffffffffffff1602179055506020820151816001015560408201518160020160006101000a81548173ffffffffffffffffffffffffffffffffffffffff021916908373ffffffffffffffffffffffffffffffffffffffff1602179055505050505b50505050505050565b600760009054906101000a900473ffffffffffffffffffffffffffffffffffffffff1673ffffffffffffffffffffffffffffffffffffffff163373ffffffffffffffffffffffffffffffffffffffff16141515610d6357600080fd5b8060018190555050565b600760009054906101000a900473ffffffffffffffffffffffffffffffffffffffff1673ffffffffffffffffffffffffffffffffffffffff163373ffffffffffffffffffffffffffffffffffffffff16141515610dc957600080fd5b80600760146101000a81548160ff02191690831515021790555050565b60045481565b6000600154905090565b600660009054906101000a900473ffffffffffffffffffffffffffffffffffffffff1673ffffffffffffffffffffffffffffffffffffffff163373ffffffffffffffffffffffffffffffffffffffff16141515610e5257600080fd5b80600760006101000a81548173ffffffffffffffffffffffffffffffffffffffff021916908373ffffffffffffffffffffffffffffffffffffffff16021790555050565b600660009054906101000a900473ffffffffffffffffffffffffffffffffffffffff1681565b60003073ffffffffffffffffffffffffffffffffffffffff1631905090565b6000809054906101000a900473ffffffffffffffffffffffffffffffffffffffff1681565b600760009054906101000a900473ffffffffffffffffffffffffffffffffffffffff1681565b6000806000600760009054906101000a900473ffffffffffffffffffffffffffffffffffffffff1673ffffffffffffffffffffffffffffffffffffffff163373ffffffffffffffffffffffffffffffffffffffff16141515610f8757600080fd5b600060028054905014151561119957600092505b60016002805490500383111515611198578373ffffffffffffffffffffffffffffffffffffffff16600284815481101515610fd257fe5b906000526020600020906003020160020160009054906101000a900473ffffffffffffffffffffffffffffffffffffffff1673ffffffffffffffffffffffffffffffffffffffff1614156110ab5760028381548110151561102f57fe5b9060005260206000209060030201600101549150858560028581548110151561105457fe5b9060005260206000209060030201600101540281151561107057fe5b0490508060028481548110151561108357fe5b9060005260206000209060030201600101819055508181036005600082825401925050819055505b6000809054906101000a900473ffffffffffffffffffffffffffffffffffffffff1673ffffffffffffffffffffffffffffffffffffffff168473ffffffffffffffffffffffffffffffffffffffff16141561118b5760028381548110151561110f57fe5b9060005260206000209060030201600101549150848660028581548110151561113457fe5b9060005260206000209060030201600101540281151561115057fe5b0490508060028481548110151561116357fe5b9060005260206000209060030201600101819055508181036005600082825401925050819055505b8280600101935050610f9b565b5b505050505050565b60055481565b600760149054906101000a900460ff1681565b600080828054905014156111cd57611396565b600090505b60018280549050038110156113045781600182018154811015156111f257fe5b9060005260206000209060030201828281548110151561120e57fe5b90600052602060002090600302016000820160009054906101000a900473ffffffffffffffffffffffffffffffffffffffff168160000160006101000a81548173ffffffffffffffffffffffffffffffffffffffff021916908373ffffffffffffffffffffffffffffffffffffffff160217905550600182015481600101556002820160009054906101000a900473ffffffffffffffffffffffffffffffffffffffff168160020160006101000a81548173ffffffffffffffffffffffffffffffffffffffff021916908373ffffffffffffffffffffffffffffffffffffffff16021790555090505080806001019150506111d2565b81600183805490500381548110151561131957fe5b9060005260206000209060030201600080820160006101000a81549073ffffffffffffffffffffffffffffffffffffffff021916905560018201600090556002820160006101000a81549073ffffffffffffffffffffffffffffffffffffffff021916905550508180548091906001900361139491906113e8565b505b5050565b606060405190810160405280600073ffffffffffffffffffffffffffffffffffffffff16815260200160008152602001600073ffffffffffffffffffffffffffffffffffffffff1681525090565b81548183558181111561141557600302816003028360005260206000209182019101611414919061141a565b5b505050565b61148c91905b8082111561148857600080820160006101000a81549073ffffffffffffffffffffffffffffffffffffffff021916905560018201600090556002820160006101000a81549073ffffffffffffffffffffffffffffffffffffffff021916905550600301611420565b5090565b905600a165627a7a72305820adac0c2f71fa7bacdfaa281811c07f03668ab9c843b6f72a2f12dc3ff0d002620029",
  "deployedBytecode": "0x6080604052600436106100d0576000357c0100000000000000000000000000000000000000000000000000000000900463ffffffff1680630f07d0c5146100d2578063321258be1461013f57806334fcf4371461018c5780633fd1bc8a146101b95780635dd8d06d146101e8578063679aefce1461021357806367b1f5df1461023e5780638da5cb5b14610281578063974f99cb146102d85780639d76ea5814610303578063d2f7265a1461035a578063f6fbb093146103b1578063f7fe496514610408578063f87dc2c614610433575b005b3480156100de57600080fd5b5061013d600480360381019080803573ffffffffffffffffffffffffffffffffffffffff16906020019092919080359060200190929190803573ffffffffffffffffffffffffffffffffffffffff169060200190929190505050610462565b005b34801561014b57600080fd5b5061018a600480360381019080803573ffffffffffffffffffffffffffffffffffffffff16906020019092919080359060200190929190505050610895565b005b34801561019857600080fd5b506101b760048036038101908080359060200190929190505050610d07565b005b3480156101c557600080fd5b506101e6600480360381019080803515159060200190929190505050610d6d565b005b3480156101f457600080fd5b506101fd610de6565b6040518082815260200191505060405180910390f35b34801561021f57600080fd5b50610228610dec565b6040518082815260200191505060405180910390f35b34801561024a57600080fd5b5061027f600480360381019080803573ffffffffffffffffffffffffffffffffffffffff169060200190929190505050610df6565b005b34801561028d57600080fd5b50610296610e96565b604051808273ffffffffffffffffffffffffffffffffffffffff1673ffffffffffffffffffffffffffffffffffffffff16815260200191505060405180910390f35b3480156102e457600080fd5b506102ed610ebc565b6040518082815260200191505060405180910390f35b34801561030f57600080fd5b50610318610edb565b604051808273ffffffffffffffffffffffffffffffffffffffff1673ffffffffffffffffffffffffffffffffffffffff16815260200191505060405180910390f35b34801561036657600080fd5b5061036f610f00565b604051808273ffffffffffffffffffffffffffffffffffffffff1673ffffffffffffffffffffffffffffffffffffffff16815260200191505060405180910390f35b3480156103bd57600080fd5b506104066004803603810190808035906020019092919080359060200190929190803573ffffffffffffffffffffffffffffffffffffffff169060200190929190505050610f26565b005b34801561041457600080fd5b5061041d6111a1565b6040518082815260200191505060405180910390f35b34801561043f57600080fd5b506104486111a7565b604051808215151515815260200191505060405180910390f35b60008060008061047061139a565b600760009054906101000a900473ffffffffffffffffffffffffffffffffffffffff1673ffffffffffffffffffffffffffffffffffffffff163373ffffffffffffffffffffffffffffffffffffffff161415156104cc57600080fd5b8694506000600454111561075e57600092505b6001600380549050038361ffff161115156105d35760038361ffff1681548110151561050757fe5b906000526020600020906003020160010154871015156105605760038361ffff1681548110151561053457fe5b906000526020600020906003020160010154935061055260036111ba565b828060019003935050610596565b8693508660038461ffff1681548110151561057757fe5b9060005260206000209060030201600101600082825403925050819055505b83870396508360046000828254039250508190555060008714806105bc57506000600454145b156105c6576105d3565b82806001019350506104df565b6000809054906101000a900473ffffffffffffffffffffffffffffffffffffffff169150600073ffffffffffffffffffffffffffffffffffffffff168273ffffffffffffffffffffffffffffffffffffffff16141515610713578173ffffffffffffffffffffffffffffffffffffffff1663a9059cbb898988036040518363ffffffff167c0100000000000000000000000000000000000000000000000000000000028152600401808373ffffffffffffffffffffffffffffffffffffffff1673ffffffffffffffffffffffffffffffffffffffff16815260200182815260200192505050602060405180830381600087803b1580156106d257600080fd5b505af11580156106e6573d6000803e3d6000fd5b505050506040513d60208110156106fc57600080fd5b81019080805190602001909291905050505061075d565b8773ffffffffffffffffffffffffffffffffffffffff166108fc8887039081150290604051600060405180830381858888f1935050505015801561075b573d6000803e3d6000fd5b505b5b600087111561088b57866005600082825401925050819055506060604051908101604052808973ffffffffffffffffffffffffffffffffffffffff1681526020018881526020018773ffffffffffffffffffffffffffffffffffffffff1681525090506002819080600181540180825580915050906001820390600052602060002090600302016000909192909190915060008201518160000160006101000a81548173ffffffffffffffffffffffffffffffffffffffff021916908373ffffffffffffffffffffffffffffffffffffffff1602179055506020820151816001015560408201518160020160006101000a81548173ffffffffffffffffffffffffffffffffffffffff021916908373ffffffffffffffffffffffffffffffffffffffff1602179055505050505b5050505050505050565b6000806000806108a361139a565b600760009054906101000a900473ffffffffffffffffffffffffffffffffffffffff1673ffffffffffffffffffffffffffffffffffffffff163373ffffffffffffffffffffffffffffffffffffffff161415156108ff57600080fd5b60006005541115610bd1576000809054906101000a900473ffffffffffffffffffffffffffffffffffffffff169250600091505b6001600280549050038261ffff16111515610bd05760028261ffff1681548110151561095b57fe5b906000526020600020906003020160000160009054906101000a900473ffffffffffffffffffffffffffffffffffffffff16945060028261ffff168154811015156109a257fe5b906000526020600020906003020160010154861015156109fb5760028261ffff168154811015156109cf57fe5b90600052602060002090600302016001015493506109ed60026111ba565b818060019003925050610a31565b8593508560028361ffff16815481101515610a1257fe5b9060005260206000209060030201600101600082825403925050819055505b8386039550600073ffffffffffffffffffffffffffffffffffffffff168373ffffffffffffffffffffffffffffffffffffffff16141515610b50578273ffffffffffffffffffffffffffffffffffffffff1663a9059cbb86866040518363ffffffff167c0100000000000000000000000000000000000000000000000000000000028152600401808373ffffffffffffffffffffffffffffffffffffffff1673ffffffffffffffffffffffffffffffffffffffff16815260200182815260200192505050602060405180830381600087803b158015610b0f57600080fd5b505af1158015610b23573d6000803e3d6000fd5b505050506040513d6020811015610b3957600080fd5b810190808051906020019092919050505050610b98565b8473ffffffffffffffffffffffffffffffffffffffff166108fc859081150290604051600060405180830381858888f19350505050158015610b96573d6000803e3d6000fd5b505b836005600082825403925050819055506000861480610bb957506000600554145b15610bc357610bd0565b8180600101925050610933565b5b6000861115610cfe57856004600082825401925050819055506060604051908101604052808873ffffffffffffffffffffffffffffffffffffffff1681526020018781526020018473ffffffffffffffffffffffffffffffffffffffff1681525090506003819080600181540180825580915050906001820390600052602060002090600302016000909192909190915060008201518160000160006101000a81548173ffffffffffffffffffffffffffffffffffffffff021916908373ffffffffffffffffffffffffffffffffffffffff1602179055506020820151816001015560408201518160020160006101000a81548173ffffffffffffffffffffffffffffffffffffffff021916908373ffffffffffffffffffffffffffffffffffffffff1602179055505050505b50505050505050565b600760009054906101000a900473ffffffffffffffffffffffffffffffffffffffff1673ffffffffffffffffffffffffffffffffffffffff163373ffffffffffffffffffffffffffffffffffffffff16141515610d6357600080fd5b8060018190555050565b600760009054906101000a900473ffffffffffffffffffffffffffffffffffffffff1673ffffffffffffffffffffffffffffffffffffffff163373ffffffffffffffffffffffffffffffffffffffff16141515610dc957600080fd5b80600760146101000a81548160ff02191690831515021790555050565b60045481565b6000600154905090565b600660009054906101000a900473ffffffffffffffffffffffffffffffffffffffff1673ffffffffffffffffffffffffffffffffffffffff163373ffffffffffffffffffffffffffffffffffffffff16141515610e5257600080fd5b80600760006101000a81548173ffffffffffffffffffffffffffffffffffffffff021916908373ffffffffffffffffffffffffffffffffffffffff16021790555050565b600660009054906101000a900473ffffffffffffffffffffffffffffffffffffffff1681565b60003073ffffffffffffffffffffffffffffffffffffffff1631905090565b6000809054906101000a900473ffffffffffffffffffffffffffffffffffffffff1681565b600760009054906101000a900473ffffffffffffffffffffffffffffffffffffffff1681565b6000806000600760009054906101000a900473ffffffffffffffffffffffffffffffffffffffff1673ffffffffffffffffffffffffffffffffffffffff163373ffffffffffffffffffffffffffffffffffffffff16141515610f8757600080fd5b600060028054905014151561119957600092505b60016002805490500383111515611198578373ffffffffffffffffffffffffffffffffffffffff16600284815481101515610fd257fe5b906000526020600020906003020160020160009054906101000a900473ffffffffffffffffffffffffffffffffffffffff1673ffffffffffffffffffffffffffffffffffffffff1614156110ab5760028381548110151561102f57fe5b9060005260206000209060030201600101549150858560028581548110151561105457fe5b9060005260206000209060030201600101540281151561107057fe5b0490508060028481548110151561108357fe5b9060005260206000209060030201600101819055508181036005600082825401925050819055505b6000809054906101000a900473ffffffffffffffffffffffffffffffffffffffff1673ffffffffffffffffffffffffffffffffffffffff168473ffffffffffffffffffffffffffffffffffffffff16141561118b5760028381548110151561110f57fe5b9060005260206000209060030201600101549150848660028581548110151561113457fe5b9060005260206000209060030201600101540281151561115057fe5b0490508060028481548110151561116357fe5b9060005260206000209060030201600101819055508181036005600082825401925050819055505b8280600101935050610f9b565b5b505050505050565b60055481565b600760149054906101000a900460ff1681565b600080828054905014156111cd57611396565b600090505b60018280549050038110156113045781600182018154811015156111f257fe5b9060005260206000209060030201828281548110151561120e57fe5b90600052602060002090600302016000820160009054906101000a900473ffffffffffffffffffffffffffffffffffffffff168160000160006101000a81548173ffffffffffffffffffffffffffffffffffffffff021916908373ffffffffffffffffffffffffffffffffffffffff160217905550600182015481600101556002820160009054906101000a900473ffffffffffffffffffffffffffffffffffffffff168160020160006101000a81548173ffffffffffffffffffffffffffffffffffffffff021916908373ffffffffffffffffffffffffffffffffffffffff16021790555090505080806001019150506111d2565b81600183805490500381548110151561131957fe5b9060005260206000209060030201600080820160006101000a81549073ffffffffffffffffffffffffffffffffffffffff021916905560018201600090556002820160006101000a81549073ffffffffffffffffffffffffffffffffffffffff021916905550508180548091906001900361139491906113e8565b505b5050565b606060405190810160405280600073ffffffffffffffffffffffffffffffffffffffff16815260200160008152602001600073ffffffffffffffffffffffffffffffffffffffff1681525090565b81548183558181111561141557600302816003028360005260206000209182019101611414919061141a565b5b505050565b61148c91905b8082111561148857600080820160006101000a81549073ffffffffffffffffffffffffffffffffffffffff021916905560018201600090556002820160006101000a81549073ffffffffffffffffffffffffffffffffffffffff021916905550600301611420565b5090565b905600a165627a7a72305820adac0c2f71fa7bacdfaa281811c07f03668ab9c843b6f72a2f12dc3ff0d002620029",
  "source": "pragma solidity ^0.4.17;\r\n\r\nimport './ERC20_Token.sol';\r\n\r\nimport '../libraries/StringUtils.sol';\r\n\r\ncontract Reserve {\r\n    using StringUtils for string;\r\n    \r\n    // Structure to hold details of Order\r\n    struct Order {\r\n        address trader;\r\n        uint256 amount;\r\n        address sourceTokenAddress;\r\n    }   \r\n    \r\n    // Attributes\r\n        \r\n        // Attributes thông tin chung về Token\r\n        address public tokenAddress;\r\n        uint256 private rate;\r\n        \r\n        // Attributes sử dụng trong xử lý Sell Orders, Buy Orders\r\n        Order[] buyOrderBook;\r\n        Order[] sellOrderBook;\r\n        uint256 public totalSellAmount;\r\n        uint256 public totalBuyAmount;\r\n        \r\n        // Attributes sử dụng cho phân quyền\r\n        address public owner;\r\n        address public exchange;\r\n        \r\n        //\r\n        bool public tradeEnable;\r\n    \r\n    // Modifiers\r\n    \r\n        modifier onlyOwner {\r\n            require(msg.sender == owner);\r\n            _;\r\n        }\r\n        \r\n        modifier onlyExchange {\r\n            require(msg.sender == exchange);\r\n            _;\r\n        }\r\n    \r\n    // Constructor và Methods \r\n    \r\n        // constructor\r\n        function Reserve (address newToken, bool isTradeEnable, string rateString) public {\r\n            rate = StringUtils.convertStringOfFloatToInt(rateString);\r\n            require(rate != 0);\r\n            \r\n            owner = msg.sender;\r\n            tokenAddress = newToken;\r\n            tradeEnable = isTradeEnable;\r\n        }\r\n    \r\n        //Empty payable fallback method just to receive some\r\n        function() payable{}\r\n        \r\n        // Set new exchange\r\n        function setExchange(address newExchange) public onlyOwner {\r\n            exchange = newExchange;\r\n        }\r\n    \r\n        // Update amount in buyOrderBook due to changes of rate\r\n        function updateBuyOrderBookAmount(uint256 newRate, uint256 oldRate, address sourceTokenAddress) public onlyExchange {\r\n            if (buyOrderBook.length != 0) {\r\n                // Cập nhật amount trong buyOrderBook\r\n                for (uint256 index = 0; index <= buyOrderBook.length-1; index++){\r\n                    // Nếu như giá trị 'sourceTokenAddress' trong Order bằng giá trị address của token mới được\r\n                    // cập nhật Rate, thì có nghĩa là BuyOrder này thuộc DestinationToken mà có SourceToken\r\n                    // là Token vừa cập nhật Rate. Vì thế mà nó cũng phải cập nhật lượng token theo\r\n                    //\r\n                    // Công thức thay đổi giá trị là:\r\n                    //\r\n                    //          current_amount * oldRate / newRate\r\n                    //\r\n                    if (buyOrderBook[index].sourceTokenAddress == sourceTokenAddress){\r\n                        uint256 oldAmount = buyOrderBook[index].amount;\r\n                        uint256 newAmount = buyOrderBook[index].amount * oldRate / newRate;\r\n                        buyOrderBook[index].amount = newAmount;\r\n                        totalBuyAmount += newAmount - oldAmount;\r\n                    }\r\n                    // Nếu giá trị 'sourceTokenAddress' bằng address của Token của Reserve hiện tại\r\n                    // thì nó cũng cần cập nhật lượng token theo\r\n                    //\r\n                    // Công thức cập nhật là:\r\n                    //\r\n                    //          current_amount * newRate / oldRate\r\n                    // \r\n                    if (sourceTokenAddress == tokenAddress){\r\n                        oldAmount = buyOrderBook[index].amount;\r\n                        newAmount = buyOrderBook[index].amount * newRate / oldRate;\r\n                        buyOrderBook[index].amount = newAmount;\r\n                        totalBuyAmount += newAmount - oldAmount;\r\n                    }\r\n                }\r\n            }\r\n        }\r\n        \r\n        // get rate\r\n        function getRate() public view returns (uint256){\r\n            return rate;\r\n        }\r\n        \r\n        function setRate(uint256 newRate) public onlyExchange {\r\n            rate = newRate;\r\n        }\r\n        \r\n        function setTradeEnable(bool isTradeEnable) public onlyExchange {\r\n            tradeEnable = isTradeEnable;\r\n        }\r\n        \r\n        function getReserveEthBalance() public view returns(uint256) {\r\n            return address(this).balance;\r\n        }\r\n        \r\n        // Process new sell order\r\n        function processNewSellOrder(address trader, uint256 amount) public onlyExchange {\r\n            // Kiểm tra xem có token đang cần mua không\r\n            if (totalBuyAmount > 0) {\r\n                //\r\n                address tokenReceiver;\r\n                uint256 currentMappedAmount;\r\n                // Duyệt qua buyOrderBook\r\n                Token token = Token(tokenAddress);\r\n                \r\n                for (uint16 index = 0; index <= buyOrderBook.length-1; index++){\r\n                    // Cập nhật địa chỉ người nhận mới\r\n                    tokenReceiver = buyOrderBook[index].trader;\r\n                    // Xác định số tiền Mapped\r\n                    if (amount >= buyOrderBook[index].amount) {\r\n                        currentMappedAmount = buyOrderBook[index].amount;\r\n                        removeFirstOrderOfOrderBook(buyOrderBook);\r\n                        index--;\r\n                    } else {\r\n                        currentMappedAmount = amount;\r\n                        buyOrderBook[index].amount -= amount;\r\n                    }\r\n                    // Giảm đi số tiền đã Mapped\r\n                    amount -= currentMappedAmount;\r\n                    // Gửi số token tương ứng cho người mua\r\n                    if (token != address(0)){\r\n                        token.transfer(tokenReceiver, currentMappedAmount);\r\n                    } else {\r\n                        tokenReceiver.transfer(currentMappedAmount);\r\n                    }\r\n                    // Giảm lượng token đã xử lý{\r\n                    totalBuyAmount -= currentMappedAmount;\r\n                    // Nếu lượng token cần xử lý đã hết hoặc không còn token\r\n                    // để Reserve mua hoặc bán thì thoát khỏi vòng lặp\r\n                    if (amount == 0\r\n                        ||\r\n                        totalBuyAmount == 0) {\r\n                        break;\r\n                    }\r\n                }\r\n            }\r\n            \r\n            //Nếu như lượng token cần xử lý vẫn còn sau khi đã mapping hết với các Buy Orders\r\n            if (amount > 0) {\r\n                // Tăng lượng token sẽ cần bán trong tương lai\r\n                totalSellAmount += amount;\r\n                // Tạo thêm một Order để xử lý trong tương lai\r\n                Order memory newOrder = Order(trader, amount, token);\r\n                sellOrderBook.push(newOrder);\r\n            }\r\n        }\r\n        \r\n        // Process new buy order\r\n        function processNewBuyOrder (address trader, uint256 amount, address sourceTokenAddress) public onlyExchange {\r\n            // Lưu lại giá trị lượng token cần xử lý ban đầu\r\n            uint256 beginingAmount = amount;\r\n            // Kiểm tra xem có token đang cần bán không\r\n            if (totalSellAmount > 0) {\r\n                //\r\n                uint256 currentMappedAmount;\r\n                // Duyệt qua sellOrderBook\r\n                for (uint16 index = 0; index <= sellOrderBook.length-1; index++){\r\n                    // Xác định số tiền Mapped\r\n                    if (amount >= sellOrderBook[index].amount) {\r\n                        currentMappedAmount = sellOrderBook[index].amount;\r\n                        removeFirstOrderOfOrderBook(sellOrderBook);\r\n                        index--;\r\n                    } else {\r\n                        currentMappedAmount = amount;\r\n                        sellOrderBook[index].amount -= amount;\r\n                    }\r\n                    // Giảm đi số tiền đã Mapped\r\n                    amount -= currentMappedAmount;\r\n                    // Giảm lượng token đã xử lý\r\n                    totalSellAmount -= currentMappedAmount;\r\n                    // Nếu lượng token cần xử lý đã hết hoặc không còn token\r\n                    // để Reserve mua hoặc bán thì thoát khỏi vòng lặp\r\n                    if (amount == 0\r\n                        ||\r\n                        totalSellAmount == 0) {\r\n                        break;\r\n                    }\r\n                }\r\n                // Gửi token cho người mua hiện tại\r\n                Token token = Token(tokenAddress);\r\n                if (token != address(0)){\r\n                    token.transfer(trader, beginingAmount - amount);\r\n                } else {\r\n                    trader.transfer(beginingAmount - amount);\r\n                }\r\n            }\r\n            //Nếu như lượng token cần xử lý vẫn còn sau khi đã mapping hết với các Sell Orders / Buy Orders\r\n            if (amount > 0) {\r\n                totalBuyAmount += amount;\r\n                // Tạo thêm một Order để xử lý trong tương lai\r\n                Order memory newOrder = Order(trader, amount, sourceTokenAddress);\r\n                buyOrderBook.push(newOrder);\r\n            }\r\n        }\r\n        \r\n        // Loại bỏ phần tử đầu tiên trong một OrderBook\r\n        function removeFirstOrderOfOrderBook(Order[] storage orderBook) private {\r\n            // Nếu OrderBook không có Order nào thì không thể Remove Order\r\n            if (orderBook.length == 0) return;\r\n            // Đẩy các Order từ phía sau lên phía trước 1 đơn vị\r\n            for (uint i = 0; i < orderBook.length-1; i++){\r\n                orderBook[i] = orderBook[i+1];\r\n            }\r\n            // Xóa bỏ Order cuối cùng\r\n            delete orderBook[orderBook.length-1];\r\n            // Trừ đi length của Order Book đi 1 đơn vị\r\n            orderBook.length--;\r\n        }\r\n}",
  "sourcePath": "E:\\frontend-skeleton\\deployment\\contracts\\Reserve.sol",
  "compiler": {
    "name": "solc",
    "version": "0.4.26+commit.4563c3fc.Emscripten.clang"
  },
  "schemaVersion": "3.4.7",
  "updatedAt": "2022-06-29T06:47:03.003Z",
  "devdoc": {
    "methods": {}
  },
  "userdoc": {
    "methods": {}
  }
}