{
  "contractName": "StringUtils",
  "abi": [
    {
      "constant": false,
      "inputs": [
        {
          "name": "_a",
          "type": "string"
        },
        {
          "name": "_b",
          "type": "string"
        }
      ],
      "name": "compare",
      "outputs": [
        {
          "name": "",
          "type": "int256"
        }
      ],
      "payable": false,
      "stateMutability": "nonpayable",
      "type": "function"
    },
    {
      "constant": false,
      "inputs": [
        {
          "name": "_a",
          "type": "string"
        },
        {
          "name": "_b",
          "type": "string"
        }
      ],
      "name": "equal",
      "outputs": [
        {
          "name": "",
          "type": "bool"
        }
      ],
      "payable": false,
      "stateMutability": "nonpayable",
      "type": "function"
    },
    {
      "constant": true,
      "inputs": [
        {
          "name": "_a",
          "type": "string"
        }
      ],
      "name": "parseInt",
      "outputs": [
        {
          "name": "",
          "type": "uint256"
        }
      ],
      "payable": false,
      "stateMutability": "view",
      "type": "function"
    },
    {
      "constant": true,
      "inputs": [
        {
          "name": "begin",
          "type": "uint256"
        },
        {
          "name": "end",
          "type": "uint256"
        },
        {
          "name": "text",
          "type": "string"
        }
      ],
      "name": "getSliceOfString",
      "outputs": [
        {
          "name": "",
          "type": "string"
        }
      ],
      "payable": false,
      "stateMutability": "pure",
      "type": "function"
    },
    {
      "constant": true,
      "inputs": [
        {
          "name": "stringOfFloat",
          "type": "string"
        },
        {
          "name": "dot",
          "type": "string"
        }
      ],
      "name": "getIndexOfDotInStringOfFloat",
      "outputs": [
        {
          "name": "",
          "type": "uint256"
        }
      ],
      "payable": false,
      "stateMutability": "view",
      "type": "function"
    },
    {
      "constant": true,
      "inputs": [
        {
          "name": "stringOfFloat",
          "type": "string"
        }
      ],
      "name": "convertStringOfFloatToInt",
      "outputs": [
        {
          "name": "",
          "type": "uint256"
        }
      ],
      "payable": false,
      "stateMutability": "view",
      "type": "function"
    }
  ],
  "bytecode": "0x610ec9610030600b82828239805160001a6073146000811461002057610022565bfe5b5030600052607381538281f300730000000000000000000000000000000000000000301460806040526004361061008f576000357c0100000000000000000000000000000000000000000000000000000000900463ffffffff168063338052cf146100945780633a96fdd71461017d57806342346c5e1461024057806346bdca9a146102b057806362e1b4b914610377578063c7d5052a1461042d575b600080fd5b6101026004803603810190808035906020019092919080359060200190929190803590602001908201803590602001908080601f016020809104026020016040519081016040528093929190818152602001838380828437820191505050505050919291929050505061049d565b6040518080602001828103825283818151815260200191508051906020019080838360005b83811015610142578082015181840152602081019050610127565b50505050905090810190601f16801561016f5780820380516001836020036101000a031916815260200191505b509250505060405180910390f35b81801561018957600080fd5b5061022a600480360381019080803590602001908201803590602001908080601f0160208091040260200160405190810160405280939291908181526020018383808284378201915050505050509192919290803590602001908201803590602001908080601f016020809104026020016040519081016040528093929190818152602001838380828437820191505050505050919291929050505061059c565b6040518082815260200191505060405180910390f35b61029a600480360381019080803590602001908201803590602001908080601f0160208091040260200160405190810160405280939291908181526020018383808284378201915050505050509192919290505050610853565b6040518082815260200191505060405180910390f35b8180156102bc57600080fd5b5061035d600480360381019080803590602001908201803590602001908080601f0160208091040260200160405190810160405280939291908181526020018383808284378201915050505050509192919290803590602001908201803590602001908080601f0160208091040260200160405190810160405280939291908181526020018383808284378201915050505050509192919290505050610867565b604051808215151515815260200191505060405180910390f35b610417600480360381019080803590602001908201803590602001908080601f0160208091040260200160405190810160405280939291908181526020018383808284378201915050505050509192919290803590602001908201803590602001908080601f016020809104026020016040519081016040528093929190818152602001838380828437820191505050505050919291929050505061087d565b6040518082815260200191505060405180910390f35b610487600480360381019080803590602001908201803590602001908080601f0160208091040260200160405190810160405280939291908181526020018383808284378201915050505050509192919290505050610ac1565b6040518082815260200191505060405180910390f35b60608060006001868603016040519080825280601f01601f1916602001820160405280156104da5781602001602082028038833980820191505090505b5091508590505b84811115156105905783818151811015156104f857fe5b9060200101517f010000000000000000000000000000000000000000000000000000000000000090047f0100000000000000000000000000000000000000000000000000000000000000028287830381518110151561055357fe5b9060200101907effffffffffffffffffffffffffffffffffffffffffffffffffffffffffffff1916908160001a90535080806001019150506104e1565b81925050509392505050565b60006060806000808693508592508351915081835110156105bc57825191505b600090505b818110156107ff5782818151811015156105d757fe5b9060200101517f010000000000000000000000000000000000000000000000000000000000000090047f0100000000000000000000000000000000000000000000000000000000000000027effffffffffffffffffffffffffffffffffffffffffffffffffffffffffffff1916848281518110151561065257fe5b9060200101517f010000000000000000000000000000000000000000000000000000000000000090047f0100000000000000000000000000000000000000000000000000000000000000027effffffffffffffffffffffffffffffffffffffffffffffffffffffffffffff191610156106ed577fffffffffffffffffffffffffffffffffffffffffffffffffffffffffffffffff9450610849565b82818151811015156106fb57fe5b9060200101517f010000000000000000000000000000000000000000000000000000000000000090047f0100000000000000000000000000000000000000000000000000000000000000027effffffffffffffffffffffffffffffffffffffffffffffffffffffffffffff1916848281518110151561077657fe5b9060200101517f010000000000000000000000000000000000000000000000000000000000000090047f0100000000000000000000000000000000000000000000000000000000000000027effffffffffffffffffffffffffffffffffffffffffffffffffffffffffffff191611156107f25760019450610849565b80806001019150506105c1565b825184511015610831577fffffffffffffffffffffffffffffffffffffffffffffffffffffffffffffffff9450610849565b8251845111156108445760019450610849565b600094505b5050505092915050565b6000610860826000610ba9565b9050919050565b600080610874848461059c565b14905092915050565b60006060806000859250849150600090505b8251811015610ab1578160008151811015156108a757fe5b9060200101517f010000000000000000000000000000000000000000000000000000000000000090047f0100000000000000000000000000000000000000000000000000000000000000027effffffffffffffffffffffffffffffffffffffffffffffffffffffffffffff1916838281518110151561092257fe5b9060200101517f010000000000000000000000000000000000000000000000000000000000000090047f0100000000000000000000000000000000000000000000000000000000000000027effffffffffffffffffffffffffffffffffffffffffffffffffffffffffffff1916101561099a57610aa4565b8160008151811015156109a957fe5b9060200101517f010000000000000000000000000000000000000000000000000000000000000090047f0100000000000000000000000000000000000000000000000000000000000000027effffffffffffffffffffffffffffffffffffffffffffffffffffffffffffff19168382815181101515610a2457fe5b9060200101517f010000000000000000000000000000000000000000000000000000000000000090047f0100000000000000000000000000000000000000000000000000000000000000027effffffffffffffffffffffffffffffffffffffffffffffffffffffffffffff19161115610a9c57610aa4565b809350610ab8565b808060010191505061088f565b620186a093505b50505092915050565b6000806060806000806000610b0b886040805190810160405280600181526020017f2e0000000000000000000000000000000000000000000000000000000000000081525061087d565b9550620186a0861415610b3257670de0b6b3a7640000610b2a89610853565b029650610b9e565b610b416000600188038a61049d565b9450610b556001870160018a51038a61049d565b935060128451101515610b6b5760009250610b73565b835160120392505b670de0b6b3a7640000610b8586610853565b02915082600a0a610b9585610853565b02905080820196505b505050505050919050565b6000606060008060008693506000925060009150600090505b8351811015610e7e5760307f0100000000000000000000000000000000000000000000000000000000000000028482815181101515610bfd57fe5b9060200101517f010000000000000000000000000000000000000000000000000000000000000090047f0100000000000000000000000000000000000000000000000000000000000000027effffffffffffffffffffffffffffffffffffffffffffffffffffffffffffff191610158015610d15575060397f0100000000000000000000000000000000000000000000000000000000000000028482815181101515610ca557fe5b9060200101517f010000000000000000000000000000000000000000000000000000000000000090047f0100000000000000000000000000000000000000000000000000000000000000027effffffffffffffffffffffffffffffffffffffffffffffffffffffffffffff191611155b15610dc6578115610d38576000861415610d2e57610e7e565b8580600190039650505b600a8302925060308482815181101515610d4e57fe5b9060200101517f010000000000000000000000000000000000000000000000000000000000000090047f0100000000000000000000000000000000000000000000000000000000000000027f010000000000000000000000000000000000000000000000000000000000000090040383019250610e71565b602e7f0100000000000000000000000000000000000000000000000000000000000000028482815181101515610df857fe5b9060200101517f010000000000000000000000000000000000000000000000000000000000000090047f0100000000000000000000000000000000000000000000000000000000000000027effffffffffffffffffffffffffffffffffffffffffffffffffffffffffffff19161415610e7057600191505b5b8080600101915050610bc2565b6000861115610e905785600a0a830292505b82945050505050929150505600a165627a7a723058204f33d7d04aa44d546b8469e6df1c29fe8ec3e21c212f1f8828f707182b7d9e5a0029",
  "source": "pragma solidity ^0.4.17;\r\nlibrary StringUtils {\r\n    /// @dev Does a byte-by-byte lexicographical comparison of two strings.\r\n    /// @return a negative number if `_a` is smaller, zero if they are equal\r\n    /// and a positive numbe if `_b` is smaller.\r\n    function compare(string _a, string _b) returns (int) {\r\n        bytes memory a = bytes(_a);\r\n        bytes memory b = bytes(_b);\r\n        uint minLength = a.length;\r\n        if (b.length < minLength) minLength = b.length;\r\n        //@todo unroll the loop into increments of 32 and do full 32 byte comparisons\r\n        for (uint i = 0; i < minLength; i ++)\r\n            if (a[i] < b[i])\r\n                return -1;\r\n            else if (a[i] > b[i])\r\n                return 1;\r\n        if (a.length < b.length)\r\n            return -1;\r\n        else if (a.length > b.length)\r\n            return 1;\r\n        else\r\n            return 0;\r\n    }\r\n    /// @dev Compares two strings and returns true iff they are equal.\r\n    function equal(string _a, string _b) returns (bool) {\r\n        return compare(_a, _b) == 0;\r\n    }\r\n    \r\n    // Convert string to int\r\n    // parseInt\r\n    function parseInt(string _a) public view  returns (uint) {\r\n        return parseIntPrivate(_a, 0);\r\n    }\r\n\r\n    // parseInt(parseFloat*10^_b)\r\n    function parseIntPrivate(string _a, uint _b) private returns (uint) {\r\n        bytes memory bresult = bytes(_a);\r\n        uint mint = 0;\r\n        bool decimals = false;\r\n        for (uint i=0; i<bresult.length; i++){\r\n            if ((bresult[i] >= 48)&&(bresult[i] <= 57)){\r\n                if (decimals){\r\n                   if (_b == 0) break;\r\n                    else _b--;\r\n                }\r\n                mint *= 10;\r\n                mint += uint(bresult[i]) - 48;\r\n            } else if (bresult[i] == 46) decimals = true;\r\n        }\r\n        if (_b > 0) mint *= 10**_b;\r\n        return mint;\r\n    }\r\n    \r\n    // Get slice of string\r\n    function getSliceOfString(uint256 begin, uint256 end, string text) public pure returns (string) {\r\n        bytes memory a = new bytes(end-begin+1);\r\n        for(uint i=begin; i<= end; i++){\r\n            a[i - begin] = bytes(text)[i];\r\n        }\r\n        return string(a);    \r\n    }\r\n    \r\n    function getIndexOfDotInStringOfFloat(string stringOfFloat, string dot) public view returns (uint256) {\r\n        bytes memory bytesText = bytes(stringOfFloat);\r\n        bytes memory bytesOfDot = bytes(dot);\r\n        for(uint256 i = 0; i < bytesText.length; i++) {\r\n            if (bytesText[i] < bytesOfDot[0]) {\r\n                continue;\r\n            }\r\n            else if (bytesText[i] > bytesOfDot[0]) {\r\n                continue;\r\n            }\r\n            return i;\r\n        }\r\n        return 100000;\r\n    }\r\n    \r\n    function convertStringOfFloatToInt(string stringOfFloat) public view returns (uint256) {\r\n        // Get index of dot\r\n        uint256 indexOfDot = getIndexOfDotInStringOfFloat(stringOfFloat, \".\");\r\n        // Nếu kết quả trả về là '100000' thì có nghĩa là chuỗi 'stringOfFloat' không chứa dấu chấm\r\n        // trả về trực tiếp giá trị parseInt nhân 10^18\r\n        if (indexOfDot == 100000) {\r\n            return parseInt(stringOfFloat) * (10**18);\r\n        }\r\n        // Nếu kết quả trả về khác\r\n        string memory part1 = getSliceOfString(0, indexOfDot - 1, stringOfFloat);\r\n        string memory part2 = getSliceOfString(indexOfDot + 1, bytes(stringOfFloat).length - 1, stringOfFloat);\r\n        uint256 part2pow;\r\n        if (bytes(part2).length >= 18) {\r\n            part2pow = 0;\r\n        } else {\r\n            part2pow = 18 - bytes(part2).length;\r\n        }\r\n        uint256 part1Int = parseInt(part1) * (10**18);\r\n        uint256 part2Int = parseInt(part2) * (10**part2pow);\r\n        return part1Int + part2Int;\r\n    }\r\n}",
  "sourcePath": "E:\\frontend-skeleton\\deployment\\libraries\\StringUtils.sol",
  "compiler": {
    "name": "solc",
    "version": "0.4.26+commit.4563c3fc.Emscripten.clang"
  },
  "schemaVersion": "3.4.7",
  "updatedAt": "2022-06-29T06:29:14.385Z",
  "devdoc": {
    "methods": {
      "equal(string,string)": {
        "details": "Compares two strings and returns true iff they are equal."
      }
    }
  },
  "userdoc": {
    "methods": {
      "compare(string,string)": {
        "notice": "and a positive numbe if `_b` is smaller."
      }
    }
  }
}